{
  "_format": "hh-sol-artifact-1",
  "contractName": "AuthorizedToken",
  "sourceName": "contracts/SafraCoinTokenGenerator.sol",
  "abi": [
    {
      "inputs": [
        {
          "internalType": "string",
          "name": "name",
          "type": "string"
        },
        {
          "internalType": "string",
          "name": "symbol",
          "type": "string"
        },
        {
          "internalType": "address",
          "name": "_oracleContract",
          "type": "address"
        }
      ],
      "stateMutability": "nonpayable",
      "type": "constructor"
    },
    {
      "inputs": [
        {
          "internalType": "address",
          "name": "spender",
          "type": "address"
        },
        {
          "internalType": "uint256",
          "name": "allowance",
          "type": "uint256"
        },
        {
          "internalType": "uint256",
          "name": "needed",
          "type": "uint256"
        }
      ],
      "name": "ERC20InsufficientAllowance",
      "type": "error"
    },
    {
      "inputs": [
        {
          "internalType": "address",
          "name": "sender",
          "type": "address"
        },
        {
          "internalType": "uint256",
          "name": "balance",
          "type": "uint256"
        },
        {
          "internalType": "uint256",
          "name": "needed",
          "type": "uint256"
        }
      ],
      "name": "ERC20InsufficientBalance",
      "type": "error"
    },
    {
      "inputs": [
        {
          "internalType": "address",
          "name": "approver",
          "type": "address"
        }
      ],
      "name": "ERC20InvalidApprover",
      "type": "error"
    },
    {
      "inputs": [
        {
          "internalType": "address",
          "name": "receiver",
          "type": "address"
        }
      ],
      "name": "ERC20InvalidReceiver",
      "type": "error"
    },
    {
      "inputs": [
        {
          "internalType": "address",
          "name": "sender",
          "type": "address"
        }
      ],
      "name": "ERC20InvalidSender",
      "type": "error"
    },
    {
      "inputs": [
        {
          "internalType": "address",
          "name": "spender",
          "type": "address"
        }
      ],
      "name": "ERC20InvalidSpender",
      "type": "error"
    },
    {
      "inputs": [
        {
          "internalType": "address",
          "name": "owner",
          "type": "address"
        }
      ],
      "name": "OwnableInvalidOwner",
      "type": "error"
    },
    {
      "inputs": [
        {
          "internalType": "address",
          "name": "account",
          "type": "address"
        }
      ],
      "name": "OwnableUnauthorizedAccount",
      "type": "error"
    },
    {
      "anonymous": false,
      "inputs": [
        {
          "indexed": true,
          "internalType": "address",
          "name": "owner",
          "type": "address"
        },
        {
          "indexed": true,
          "internalType": "address",
          "name": "spender",
          "type": "address"
        },
        {
          "indexed": false,
          "internalType": "uint256",
          "name": "value",
          "type": "uint256"
        }
      ],
      "name": "Approval",
      "type": "event"
    },
    {
      "anonymous": false,
      "inputs": [
        {
          "indexed": true,
          "internalType": "address",
          "name": "previousOwner",
          "type": "address"
        },
        {
          "indexed": true,
          "internalType": "address",
          "name": "newOwner",
          "type": "address"
        }
      ],
      "name": "OwnershipTransferred",
      "type": "event"
    },
    {
      "anonymous": false,
      "inputs": [
        {
          "indexed": true,
          "internalType": "address",
          "name": "to",
          "type": "address"
        },
        {
          "indexed": false,
          "internalType": "uint256",
          "name": "amount",
          "type": "uint256"
        }
      ],
      "name": "TokensMinted",
      "type": "event"
    },
    {
      "anonymous": false,
      "inputs": [
        {
          "indexed": true,
          "internalType": "address",
          "name": "from",
          "type": "address"
        },
        {
          "indexed": true,
          "internalType": "address",
          "name": "to",
          "type": "address"
        },
        {
          "indexed": false,
          "internalType": "uint256",
          "name": "value",
          "type": "uint256"
        }
      ],
      "name": "Transfer",
      "type": "event"
    },
    {
      "inputs": [
        {
          "internalType": "address",
          "name": "owner",
          "type": "address"
        },
        {
          "internalType": "address",
          "name": "spender",
          "type": "address"
        }
      ],
      "name": "allowance",
      "outputs": [
        {
          "internalType": "uint256",
          "name": "",
          "type": "uint256"
        }
      ],
      "stateMutability": "view",
      "type": "function"
    },
    {
      "inputs": [
        {
          "internalType": "address",
          "name": "spender",
          "type": "address"
        },
        {
          "internalType": "uint256",
          "name": "value",
          "type": "uint256"
        }
      ],
      "name": "approve",
      "outputs": [
        {
          "internalType": "bool",
          "name": "",
          "type": "bool"
        }
      ],
      "stateMutability": "nonpayable",
      "type": "function"
    },
    {
      "inputs": [
        {
          "internalType": "address",
          "name": "account",
          "type": "address"
        }
      ],
      "name": "balanceOf",
      "outputs": [
        {
          "internalType": "uint256",
          "name": "",
          "type": "uint256"
        }
      ],
      "stateMutability": "view",
      "type": "function"
    },
    {
      "inputs": [],
      "name": "decimals",
      "outputs": [
        {
          "internalType": "uint8",
          "name": "",
          "type": "uint8"
        }
      ],
      "stateMutability": "view",
      "type": "function"
    },
    {
      "inputs": [
        {
          "internalType": "address",
          "name": "to",
          "type": "address"
        },
        {
          "internalType": "uint256",
          "name": "amount",
          "type": "uint256"
        }
      ],
      "name": "mint",
      "outputs": [],
      "stateMutability": "nonpayable",
      "type": "function"
    },
    {
      "inputs": [],
      "name": "name",
      "outputs": [
        {
          "internalType": "string",
          "name": "",
          "type": "string"
        }
      ],
      "stateMutability": "view",
      "type": "function"
    },
    {
      "inputs": [],
      "name": "oracleContract",
      "outputs": [
        {
          "internalType": "address",
          "name": "",
          "type": "address"
        }
      ],
      "stateMutability": "view",
      "type": "function"
    },
    {
      "inputs": [],
      "name": "owner",
      "outputs": [
        {
          "internalType": "address",
          "name": "",
          "type": "address"
        }
      ],
      "stateMutability": "view",
      "type": "function"
    },
    {
      "inputs": [],
      "name": "renounceOwnership",
      "outputs": [],
      "stateMutability": "nonpayable",
      "type": "function"
    },
    {
      "inputs": [
        {
          "internalType": "address",
          "name": "_oracleContract",
          "type": "address"
        }
      ],
      "name": "setOracle",
      "outputs": [],
      "stateMutability": "nonpayable",
      "type": "function"
    },
    {
      "inputs": [],
      "name": "symbol",
      "outputs": [
        {
          "internalType": "string",
          "name": "",
          "type": "string"
        }
      ],
      "stateMutability": "view",
      "type": "function"
    },
    {
      "inputs": [],
      "name": "totalSupply",
      "outputs": [
        {
          "internalType": "uint256",
          "name": "",
          "type": "uint256"
        }
      ],
      "stateMutability": "view",
      "type": "function"
    },
    {
      "inputs": [
        {
          "internalType": "address",
          "name": "to",
          "type": "address"
        },
        {
          "internalType": "uint256",
          "name": "value",
          "type": "uint256"
        }
      ],
      "name": "transfer",
      "outputs": [
        {
          "internalType": "bool",
          "name": "",
          "type": "bool"
        }
      ],
      "stateMutability": "nonpayable",
      "type": "function"
    },
    {
      "inputs": [
        {
          "internalType": "address",
          "name": "from",
          "type": "address"
        },
        {
          "internalType": "address",
          "name": "to",
          "type": "address"
        },
        {
          "internalType": "uint256",
          "name": "value",
          "type": "uint256"
        }
      ],
      "name": "transferFrom",
      "outputs": [
        {
          "internalType": "bool",
          "name": "",
          "type": "bool"
        }
      ],
      "stateMutability": "nonpayable",
      "type": "function"
    },
    {
      "inputs": [
        {
          "internalType": "address",
          "name": "newOwner",
          "type": "address"
        }
      ],
      "name": "transferOwnership",
      "outputs": [],
      "stateMutability": "nonpayable",
      "type": "function"
    }
  ],
  "bytecode": "0x608060405234801561001057600080fd5b50604051611bf0380380611bf0833981810160405281019061003291906103bb565b33838381600390816100449190610667565b5080600490816100549190610667565b505050600073ffffffffffffffffffffffffffffffffffffffff168173ffffffffffffffffffffffffffffffffffffffff16036100c95760006040517f1e4fbdf70000000000000000000000000000000000000000000000000000000081526004016100c09190610748565b60405180910390fd5b6100d88161012260201b60201c565b5080600660006101000a81548173ffffffffffffffffffffffffffffffffffffffff021916908373ffffffffffffffffffffffffffffffffffffffff160217905550505050610763565b6000600560009054906101000a900473ffffffffffffffffffffffffffffffffffffffff16905081600560006101000a81548173ffffffffffffffffffffffffffffffffffffffff021916908373ffffffffffffffffffffffffffffffffffffffff1602179055508173ffffffffffffffffffffffffffffffffffffffff168173ffffffffffffffffffffffffffffffffffffffff167f8be0079c531659141344cd1fd0a4f28419497f9722a3daafe3b4186f6b6457e060405160405180910390a35050565b6000604051905090565b600080fd5b600080fd5b600080fd5b600080fd5b6000601f19601f8301169050919050565b7f4e487b7100000000000000000000000000000000000000000000000000000000600052604160045260246000fd5b61024f82610206565b810181811067ffffffffffffffff8211171561026e5761026d610217565b5b80604052505050565b60006102816101e8565b905061028d8282610246565b919050565b600067ffffffffffffffff8211156102ad576102ac610217565b5b6102b682610206565b9050602081019050919050565b60005b838110156102e15780820151818401526020810190506102c6565b60008484015250505050565b60006103006102fb84610292565b610277565b90508281526020810184848401111561031c5761031b610201565b5b6103278482856102c3565b509392505050565b600082601f830112610344576103436101fc565b5b81516103548482602086016102ed565b91505092915050565b600073ffffffffffffffffffffffffffffffffffffffff82169050919050565b60006103888261035d565b9050919050565b6103988161037d565b81146103a357600080fd5b50565b6000815190506103b58161038f565b92915050565b6000806000606084860312156103d4576103d36101f2565b5b600084015167ffffffffffffffff8111156103f2576103f16101f7565b5b6103fe8682870161032f565b935050602084015167ffffffffffffffff81111561041f5761041e6101f7565b5b61042b8682870161032f565b925050604061043c868287016103a6565b9150509250925092565b600081519050919050565b7f4e487b7100000000000000000000000000000000000000000000000000000000600052602260045260246000fd5b6000600282049050600182168061049857607f821691505b6020821081036104ab576104aa610451565b5b50919050565b60008190508160005260206000209050919050565b60006020601f8301049050919050565b600082821b905092915050565b6000600883026105137fffffffffffffffffffffffffffffffffffffffffffffffffffffffffffffffff826104d6565b61051d86836104d6565b95508019841693508086168417925050509392505050565b6000819050919050565b6000819050919050565b600061056461055f61055a84610535565b61053f565b610535565b9050919050565b6000819050919050565b61057e83610549565b61059261058a8261056b565b8484546104e3565b825550505050565b600090565b6105a761059a565b6105b2818484610575565b505050565b5b818110156105d6576105cb60008261059f565b6001810190506105b8565b5050565b601f82111561061b576105ec816104b1565b6105f5846104c6565b81016020851015610604578190505b610618610610856104c6565b8301826105b7565b50505b505050565b600082821c905092915050565b600061063e60001984600802610620565b1980831691505092915050565b6000610657838361062d565b9150826002028217905092915050565b61067082610446565b67ffffffffffffffff81111561068957610688610217565b5b6106938254610480565b61069e8282856105da565b600060209050601f8311600181146106d157600084156106bf578287015190505b6106c9858261064b565b865550610731565b601f1984166106df866104b1565b60005b82811015610707578489015182556001820191506020850194506020810190506106e2565b868310156107245784890151610720601f89168261062d565b8355505b6001600288020188555050505b505050505050565b6107428161037d565b82525050565b600060208201905061075d6000830184610739565b92915050565b61147e806107726000396000f3fe608060405234801561001057600080fd5b50600436106100f55760003560e01c8063715018a611610097578063a9059cbb11610066578063a9059cbb14610262578063bece753214610292578063dd62ed3e146102b0578063f2fde38b146102e0576100f5565b8063715018a6146102005780637adbf9731461020a5780638da5cb5b1461022657806395d89b4114610244576100f5565b806323b872dd116100d357806323b872dd14610166578063313ce5671461019657806340c10f19146101b457806370a08231146101d0576100f5565b806306fdde03146100fa578063095ea7b31461011857806318160ddd14610148575b600080fd5b6101026102fc565b60405161010f9190610fe7565b60405180910390f35b610132600480360381019061012d91906110a2565b61038e565b60405161013f91906110fd565b60405180910390f35b6101506103b1565b60405161015d9190611127565b60405180910390f35b610180600480360381019061017b9190611142565b6103bb565b60405161018d91906110fd565b60405180910390f35b61019e6103ea565b6040516101ab91906111b1565b60405180910390f35b6101ce60048036038101906101c991906110a2565b6103f3565b005b6101ea60048036038101906101e591906111cc565b610530565b6040516101f79190611127565b60405180910390f35b610208610578565b005b610224600480360381019061021f91906111cc565b61058c565b005b61022e6105d8565b60405161023b9190611208565b60405180910390f35b61024c610602565b6040516102599190610fe7565b60405180910390f35b61027c600480360381019061027791906110a2565b610694565b60405161028991906110fd565b60405180910390f35b61029a6106b7565b6040516102a79190611208565b60405180910390f35b6102ca60048036038101906102c59190611223565b6106dd565b6040516102d79190611127565b60405180910390f35b6102fa60048036038101906102f591906111cc565b610764565b005b60606003805461030b90611292565b80601f016020809104026020016040519081016040528092919081815260200182805461033790611292565b80156103845780601f1061035957610100808354040283529160200191610384565b820191906000526020600020905b81548152906001019060200180831161036757829003601f168201915b5050505050905090565b6000806103996107ea565b90506103a68185856107f2565b600191505092915050565b6000600254905090565b6000806103c66107ea565b90506103d3858285610804565b6103de858585610898565b60019150509392505050565b60006012905090565b6000600660009054906101000a900473ffffffffffffffffffffffffffffffffffffffff1690508073ffffffffffffffffffffffffffffffffffffffff1663fe9fbb80336040518263ffffffff1660e01b81526004016104539190611208565b602060405180830381865afa158015610470573d6000803e3d6000fd5b505050506040513d601f19601f8201168201806040525081019061049491906112ef565b6104d3576040517f08c379a00000000000000000000000000000000000000000000000000000000081526004016104ca9061138e565b60405180910390fd5b6104dd838361098c565b8273ffffffffffffffffffffffffffffffffffffffff167f3f2c9d57c068687834f0de942a9babb9e5acab57d516d3480a3c16ee165a4273836040516105239190611127565b60405180910390a2505050565b60008060008373ffffffffffffffffffffffffffffffffffffffff1673ffffffffffffffffffffffffffffffffffffffff168152602001908152602001600020549050919050565b610580610a0e565b61058a6000610a95565b565b610594610a0e565b80600660006101000a81548173ffffffffffffffffffffffffffffffffffffffff021916908373ffffffffffffffffffffffffffffffffffffffff16021790555050565b6000600560009054906101000a900473ffffffffffffffffffffffffffffffffffffffff16905090565b60606004805461061190611292565b80601f016020809104026020016040519081016040528092919081815260200182805461063d90611292565b801561068a5780601f1061065f5761010080835404028352916020019161068a565b820191906000526020600020905b81548152906001019060200180831161066d57829003601f168201915b5050505050905090565b60008061069f6107ea565b90506106ac818585610898565b600191505092915050565b600660009054906101000a900473ffffffffffffffffffffffffffffffffffffffff1681565b6000600160008473ffffffffffffffffffffffffffffffffffffffff1673ffffffffffffffffffffffffffffffffffffffff16815260200190815260200160002060008373ffffffffffffffffffffffffffffffffffffffff1673ffffffffffffffffffffffffffffffffffffffff16815260200190815260200160002054905092915050565b61076c610a0e565b600073ffffffffffffffffffffffffffffffffffffffff168173ffffffffffffffffffffffffffffffffffffffff16036107de5760006040517f1e4fbdf70000000000000000000000000000000000000000000000000000000081526004016107d59190611208565b60405180910390fd5b6107e781610a95565b50565b600033905090565b6107ff8383836001610b5b565b505050565b600061081084846106dd565b90507fffffffffffffffffffffffffffffffffffffffffffffffffffffffffffffffff81146108925781811015610882578281836040517ffb8f41b2000000000000000000000000000000000000000000000000000000008152600401610879939291906113ae565b60405180910390fd5b61089184848484036000610b5b565b5b50505050565b600073ffffffffffffffffffffffffffffffffffffffff168373ffffffffffffffffffffffffffffffffffffffff160361090a5760006040517f96c6fd1e0000000000000000000000000000000000000000000000000000000081526004016109019190611208565b60405180910390fd5b600073ffffffffffffffffffffffffffffffffffffffff168273ffffffffffffffffffffffffffffffffffffffff160361097c5760006040517fec442f050000000000000000000000000000000000000000000000000000000081526004016109739190611208565b60405180910390fd5b610987838383610d32565b505050565b600073ffffffffffffffffffffffffffffffffffffffff168273ffffffffffffffffffffffffffffffffffffffff16036109fe5760006040517fec442f050000000000000000000000000000000000000000000000000000000081526004016109f59190611208565b60405180910390fd5b610a0a60008383610d32565b5050565b610a166107ea565b73ffffffffffffffffffffffffffffffffffffffff16610a346105d8565b73ffffffffffffffffffffffffffffffffffffffff1614610a9357610a576107ea565b6040517f118cdaa7000000000000000000000000000000000000000000000000000000008152600401610a8a9190611208565b60405180910390fd5b565b6000600560009054906101000a900473ffffffffffffffffffffffffffffffffffffffff16905081600560006101000a81548173ffffffffffffffffffffffffffffffffffffffff021916908373ffffffffffffffffffffffffffffffffffffffff1602179055508173ffffffffffffffffffffffffffffffffffffffff168173ffffffffffffffffffffffffffffffffffffffff167f8be0079c531659141344cd1fd0a4f28419497f9722a3daafe3b4186f6b6457e060405160405180910390a35050565b600073ffffffffffffffffffffffffffffffffffffffff168473ffffffffffffffffffffffffffffffffffffffff1603610bcd5760006040517fe602df05000000000000000000000000000000000000000000000000000000008152600401610bc49190611208565b60405180910390fd5b600073ffffffffffffffffffffffffffffffffffffffff168373ffffffffffffffffffffffffffffffffffffffff1603610c3f5760006040517f94280d62000000000000000000000000000000000000000000000000000000008152600401610c369190611208565b60405180910390fd5b81600160008673ffffffffffffffffffffffffffffffffffffffff1673ffffffffffffffffffffffffffffffffffffffff16815260200190815260200160002060008573ffffffffffffffffffffffffffffffffffffffff1673ffffffffffffffffffffffffffffffffffffffff168152602001908152602001600020819055508015610d2c578273ffffffffffffffffffffffffffffffffffffffff168473ffffffffffffffffffffffffffffffffffffffff167f8c5be1e5ebec7d5bd14f71427d1e84f3dd0314c0f7b2291e5b200ac8c7c3b92584604051610d239190611127565b60405180910390a35b50505050565b600073ffffffffffffffffffffffffffffffffffffffff168373ffffffffffffffffffffffffffffffffffffffff1603610d84578060026000828254610d789190611414565b92505081905550610e57565b60008060008573ffffffffffffffffffffffffffffffffffffffff1673ffffffffffffffffffffffffffffffffffffffff16815260200190815260200160002054905081811015610e10578381836040517fe450d38c000000000000000000000000000000000000000000000000000000008152600401610e07939291906113ae565b60405180910390fd5b8181036000808673ffffffffffffffffffffffffffffffffffffffff1673ffffffffffffffffffffffffffffffffffffffff16815260200190815260200160002081905550505b600073ffffffffffffffffffffffffffffffffffffffff168273ffffffffffffffffffffffffffffffffffffffff1603610ea05780600260008282540392505081905550610eed565b806000808473ffffffffffffffffffffffffffffffffffffffff1673ffffffffffffffffffffffffffffffffffffffff168152602001908152602001600020600082825401925050819055505b8173ffffffffffffffffffffffffffffffffffffffff168373ffffffffffffffffffffffffffffffffffffffff167fddf252ad1be2c89b69c2b068fc378daa952ba7f163c4a11628f55a4df523b3ef83604051610f4a9190611127565b60405180910390a3505050565b600081519050919050565b600082825260208201905092915050565b60005b83811015610f91578082015181840152602081019050610f76565b60008484015250505050565b6000601f19601f8301169050919050565b6000610fb982610f57565b610fc38185610f62565b9350610fd3818560208601610f73565b610fdc81610f9d565b840191505092915050565b600060208201905081810360008301526110018184610fae565b905092915050565b600080fd5b600073ffffffffffffffffffffffffffffffffffffffff82169050919050565b60006110398261100e565b9050919050565b6110498161102e565b811461105457600080fd5b50565b60008135905061106681611040565b92915050565b6000819050919050565b61107f8161106c565b811461108a57600080fd5b50565b60008135905061109c81611076565b92915050565b600080604083850312156110b9576110b8611009565b5b60006110c785828601611057565b92505060206110d88582860161108d565b9150509250929050565b60008115159050919050565b6110f7816110e2565b82525050565b600060208201905061111260008301846110ee565b92915050565b6111218161106c565b82525050565b600060208201905061113c6000830184611118565b92915050565b60008060006060848603121561115b5761115a611009565b5b600061116986828701611057565b935050602061117a86828701611057565b925050604061118b8682870161108d565b9150509250925092565b600060ff82169050919050565b6111ab81611195565b82525050565b60006020820190506111c660008301846111a2565b92915050565b6000602082840312156111e2576111e1611009565b5b60006111f084828501611057565b91505092915050565b6112028161102e565b82525050565b600060208201905061121d60008301846111f9565b92915050565b6000806040838503121561123a57611239611009565b5b600061124885828601611057565b925050602061125985828601611057565b9150509250929050565b7f4e487b7100000000000000000000000000000000000000000000000000000000600052602260045260246000fd5b600060028204905060018216806112aa57607f821691505b6020821081036112bd576112bc611263565b5b50919050565b6112cc816110e2565b81146112d757600080fd5b50565b6000815190506112e9816112c3565b92915050565b60006020828403121561130557611304611009565b5b6000611313848285016112da565b91505092915050565b7f596f7520617265206e6f7420617574686f72697a656420746f206d696e74207460008201527f6f6b656e73000000000000000000000000000000000000000000000000000000602082015250565b6000611378602583610f62565b91506113838261131c565b604082019050919050565b600060208201905081810360008301526113a78161136b565b9050919050565b60006060820190506113c360008301866111f9565b6113d06020830185611118565b6113dd6040830184611118565b949350505050565b7f4e487b7100000000000000000000000000000000000000000000000000000000600052601160045260246000fd5b600061141f8261106c565b915061142a8361106c565b9250828201905080821115611442576114416113e5565b5b9291505056fea2646970667358221220f9ddc2697e7a0241d41ab7890c7f73e5b03644532912886992da0fea77ee6e3c64736f6c634300081c0033",
  "linkReferences": {},
  "deployedLinkReferences": {}
}