{
  "_format": "hh-sol-artifact-1",
  "contractName": "SafraCoinPoolManagement",
  "sourceName": "contracts/SafraCoinPoolManagement.sol",
  "abi": [
    {
      "inputs": [
        {
          "internalType": "address",
          "name": "_platform",
          "type": "address"
        },
        {
          "internalType": "address",
          "name": "_tokenGeneratorContract",
          "type": "address"
        }
      ],
      "stateMutability": "nonpayable",
      "type": "constructor"
    },
    {
      "anonymous": false,
      "inputs": [
        {
          "indexed": true,
          "internalType": "string",
          "name": "cropId",
          "type": "string"
        },
        {
          "indexed": true,
          "internalType": "address",
          "name": "farmer",
          "type": "address"
        },
        {
          "indexed": false,
          "internalType": "uint256",
          "name": "totalTokens",
          "type": "uint256"
        }
      ],
      "name": "CropCreated",
      "type": "event"
    },
    {
      "inputs": [
        {
          "internalType": "string",
          "name": "_cropId",
          "type": "string"
        },
        {
          "internalType": "address",
          "name": "_farmer",
          "type": "address"
        },
        {
          "internalType": "uint256",
          "name": "_totalTokens",
          "type": "uint256"
        },
        {
          "internalType": "uint256",
          "name": "_platformFee",
          "type": "uint256"
        }
      ],
      "name": "createCrop",
      "outputs": [],
      "stateMutability": "nonpayable",
      "type": "function"
    },
    {
      "inputs": [
        {
          "internalType": "string",
          "name": "",
          "type": "string"
        }
      ],
      "name": "crops",
      "outputs": [
        {
          "internalType": "address",
          "name": "farmer",
          "type": "address"
        },
        {
          "internalType": "uint256",
          "name": "totalTokens",
          "type": "uint256"
        },
        {
          "internalType": "uint256",
          "name": "platformFee",
          "type": "uint256"
        },
        {
          "internalType": "bool",
          "name": "tokenized",
          "type": "bool"
        }
      ],
      "stateMutability": "view",
      "type": "function"
    },
    {
      "inputs": [],
      "name": "platform",
      "outputs": [
        {
          "internalType": "address",
          "name": "",
          "type": "address"
        }
      ],
      "stateMutability": "view",
      "type": "function"
    },
    {
      "inputs": [],
      "name": "tokenGeneratorContract",
      "outputs": [
        {
          "internalType": "address",
          "name": "",
          "type": "address"
        }
      ],
      "stateMutability": "view",
      "type": "function"
    }
  ],
  "bytecode": "0x608060405234801561001057600080fd5b50604051610b67380380610b678339818101604052810190610032919061011d565b806000806101000a81548173ffffffffffffffffffffffffffffffffffffffff021916908373ffffffffffffffffffffffffffffffffffffffff16021790555081600160006101000a81548173ffffffffffffffffffffffffffffffffffffffff021916908373ffffffffffffffffffffffffffffffffffffffff160217905550505061015d565b600080fd5b600073ffffffffffffffffffffffffffffffffffffffff82169050919050565b60006100ea826100bf565b9050919050565b6100fa816100df565b811461010557600080fd5b50565b600081519050610117816100f1565b92915050565b60008060408385031215610134576101336100ba565b5b600061014285828601610108565b925050602061015385828601610108565b9150509250929050565b6109fb8061016c6000396000f3fe608060405234801561001057600080fd5b506004361061004c5760003560e01c80631bb8cb8d146100515780634bde38c8146100845780638bd72251146100a2578063a6a8077d146100c0575b600080fd5b61006b600480360381019061006691906105fb565b6100dc565b60405161007b94939291906106b9565b60405180910390f35b61008c61014f565b60405161009991906106fe565b60405180910390f35b6100aa610175565b6040516100b791906106fe565b60405180910390f35b6100da60048036038101906100d59190610771565b610199565b005b6002818051602081018201805184825260208301602085012081835280955050505050506000915090508060000160009054906101000a900473ffffffffffffffffffffffffffffffffffffffff16908060010154908060020154908060030160009054906101000a900460ff16905084565b600160009054906101000a900473ffffffffffffffffffffffffffffffffffffffff1681565b60008054906101000a900473ffffffffffffffffffffffffffffffffffffffff1681565b600a8111156101dd576040517f08c379a00000000000000000000000000000000000000000000000000000000081526004016101d490610851565b60405180910390fd5b60405180608001604052808473ffffffffffffffffffffffffffffffffffffffff1681526020018381526020018281526020016000151581525060028560405161022791906108e2565b908152602001604051809103902060008201518160000160006101000a81548173ffffffffffffffffffffffffffffffffffffffff021916908373ffffffffffffffffffffffffffffffffffffffff160217905550602082015181600101556040820151816002015560608201518160030160006101000a81548160ff0219169083151502179055509050508273ffffffffffffffffffffffffffffffffffffffff16846040516102d891906108e2565b60405180910390207fee071d3b08e1417cbb68ae26de7e2c9246923674e3526f2585c1754f6e5b5b0f8460405161030f91906108f9565b60405180910390a361032084610326565b50505050565b600060028260405161033891906108e2565b908152602001604051809103902090508060030160009054906101000a900460ff161561039a576040517f08c379a000000000000000000000000000000000000000000000000000000000815260040161039190610960565b60405180910390fd5b60018160030160006101000a81548160ff02191690831515021790555060008060009054906101000a900473ffffffffffffffffffffffffffffffffffffffff1690508073ffffffffffffffffffffffffffffffffffffffff16633c173a4f8360000160009054906101000a900473ffffffffffffffffffffffffffffffffffffffff168460010154600160009054906101000a900473ffffffffffffffffffffffffffffffffffffffff1686600201546040518563ffffffff1660e01b815260040161046a9493929190610980565b600060405180830381600087803b15801561048457600080fd5b505af1158015610498573d6000803e3d6000fd5b50505050505050565b6000604051905090565b600080fd5b600080fd5b600080fd5b600080fd5b6000601f19601f8301169050919050565b7f4e487b7100000000000000000000000000000000000000000000000000000000600052604160045260246000fd5b610508826104bf565b810181811067ffffffffffffffff82111715610527576105266104d0565b5b80604052505050565b600061053a6104a1565b905061054682826104ff565b919050565b600067ffffffffffffffff821115610566576105656104d0565b5b61056f826104bf565b9050602081019050919050565b82818337600083830152505050565b600061059e6105998461054b565b610530565b9050828152602081018484840111156105ba576105b96104ba565b5b6105c584828561057c565b509392505050565b600082601f8301126105e2576105e16104b5565b5b81356105f284826020860161058b565b91505092915050565b600060208284031215610611576106106104ab565b5b600082013567ffffffffffffffff81111561062f5761062e6104b0565b5b61063b848285016105cd565b91505092915050565b600073ffffffffffffffffffffffffffffffffffffffff82169050919050565b600061066f82610644565b9050919050565b61067f81610664565b82525050565b6000819050919050565b61069881610685565b82525050565b60008115159050919050565b6106b38161069e565b82525050565b60006080820190506106ce6000830187610676565b6106db602083018661068f565b6106e8604083018561068f565b6106f560608301846106aa565b95945050505050565b60006020820190506107136000830184610676565b92915050565b61072281610664565b811461072d57600080fd5b50565b60008135905061073f81610719565b92915050565b61074e81610685565b811461075957600080fd5b50565b60008135905061076b81610745565b92915050565b6000806000806080858703121561078b5761078a6104ab565b5b600085013567ffffffffffffffff8111156107a9576107a86104b0565b5b6107b5878288016105cd565b94505060206107c687828801610730565b93505060406107d78782880161075c565b92505060606107e88782880161075c565b91505092959194509250565b600082825260208201905092915050565b7f506c6174666f726d206665652063616e6e6f7420657863656564203130250000600082015250565b600061083b601e836107f4565b915061084682610805565b602082019050919050565b6000602082019050818103600083015261086a8161082e565b9050919050565b600081519050919050565b600081905092915050565b60005b838110156108a557808201518184015260208101905061088a565b60008484015250505050565b60006108bc82610871565b6108c6818561087c565b93506108d6818560208601610887565b80840191505092915050565b60006108ee82846108b1565b915081905092915050565b600060208201905061090e600083018461068f565b92915050565b7f43726f7020616c726561647920746f6b656e697a656400000000000000000000600082015250565b600061094a6016836107f4565b915061095582610914565b602082019050919050565b600060208201905081810360008301526109798161093d565b9050919050565b60006080820190506109956000830187610676565b6109a2602083018661068f565b6109af6040830185610676565b6109bc606083018461068f565b9594505050505056fea2646970667358221220aa67ee60a6f897d51cf16f5a1e2e6088ab8ab54d9ddc1fa62f6978352794dd7864736f6c634300081c0033",
  "linkReferences": {},
  "deployedLinkReferences": {}
}