{
  "_format": "hh-sol-artifact-1",
  "contractName": "TokenAuthorizationOracle",
  "sourceName": "contracts/SafraCoinOracle.sol",
  "abi": [
    {
      "anonymous": false,
      "inputs": [
        {
          "indexed": true,
          "internalType": "address",
          "name": "user",
          "type": "address"
        },
        {
          "indexed": false,
          "internalType": "bool",
          "name": "isAuthorized",
          "type": "bool"
        }
      ],
      "name": "AddressAuthorizationChanged",
      "type": "event"
    },
    {
      "inputs": [
        {
          "internalType": "address",
          "name": "_address",
          "type": "address"
        }
      ],
      "name": "isAuthorized",
      "outputs": [
        {
          "internalType": "bool",
          "name": "",
          "type": "bool"
        }
      ],
      "stateMutability": "view",
      "type": "function"
    },
    {
      "inputs": [
        {
          "internalType": "address",
          "name": "_address",
          "type": "address"
        },
        {
          "internalType": "bool",
          "name": "_isAuthorized",
          "type": "bool"
        }
      ],
      "name": "setAuthorization",
      "outputs": [],
      "stateMutability": "nonpayable",
      "type": "function"
    }
  ],
  "bytecode": "0x6080604052348015600f57600080fd5b506102ec8061001f6000396000f3fe608060405234801561001057600080fd5b50600436106100365760003560e01c8063eecea0001461003b578063fe9fbb8014610057575b600080fd5b6100556004803603810190610050919061021f565b610087565b005b610071600480360381019061006c919061025f565b61012f565b60405161007e919061029b565b60405180910390f35b806000808473ffffffffffffffffffffffffffffffffffffffff1673ffffffffffffffffffffffffffffffffffffffff16815260200190815260200160002060006101000a81548160ff0219169083151502179055508173ffffffffffffffffffffffffffffffffffffffff167f0a57a6a9414120e1dc706efc91b85618dbb1b0cd2a8119e7cf1ce3d0b0d0871d82604051610123919061029b565b60405180910390a25050565b60008060008373ffffffffffffffffffffffffffffffffffffffff1673ffffffffffffffffffffffffffffffffffffffff16815260200190815260200160002060009054906101000a900460ff169050919050565b600080fd5b600073ffffffffffffffffffffffffffffffffffffffff82169050919050565b60006101b482610189565b9050919050565b6101c4816101a9565b81146101cf57600080fd5b50565b6000813590506101e1816101bb565b92915050565b60008115159050919050565b6101fc816101e7565b811461020757600080fd5b50565b600081359050610219816101f3565b92915050565b6000806040838503121561023657610235610184565b5b6000610244858286016101d2565b92505060206102558582860161020a565b9150509250929050565b60006020828403121561027557610274610184565b5b6000610283848285016101d2565b91505092915050565b610295816101e7565b82525050565b60006020820190506102b0600083018461028c565b9291505056fea2646970667358221220699b9f8f8589242949b20a19f6f8cf2ce33267d6436ec601e5c71b24b963ce2664736f6c634300081c0033",
  "linkReferences": {},
  "deployedLinkReferences": {}
}